:0300000002107A71
:0C107A00787FE4F6D8FD75811D0210C1DE
:10112600160800000000000000000000000000009B
:081136000000000000000000B1
:10110600E4FDFCC3ED9FEC9E5015E4FBFA0BBB001F
:0F111600010ABA04F8BBFBF50DBD00010C80E423
:0111250022A7
:10080000D290D2B6C2B4C2B7C2B5D2B1C2B2C2B32C
:1008100085080A85090B850A0C850B0D850C0E854C
:100820000D0F850E10850F1185101285111385127D
:10083000148513158514168515178516188517192F
:1008400085181A85191B851A1C851B1DD2B4D2B5B3
:10085000C2B4C2B520B6FD30B6FDD2B7AF907508B0
:10086000008F0930B003020A2BAC1CAD1DE4120F3F
:10087000B27B757A937918783E120EA7C004C00532
:10088000C006C007AC90E4120FB77B757A93791855
:1008900078BE120EA7D003D002D001D000120DB244
:1008A000C004C005C006C007AC0AAD0BE4120FB20D
:1008B0007B267AE47983783D120EA7A804A905AABD
:1008C00006AB07D007D006D005D004120DB2C00485
:1008D000C005C006C007AC1AAD1BE4120FB27B26E0
:1008E0007AE47983783D120EA7A804A905AA06AB7D
:1008F00007D007D006D005D004120DB2C004C00541
:10090000C006C007AC0CAD0DE4120FB27BBE7AC1BD
:100910007997783D120EA7A804A905AA06AB07D0BF
:1009200007D006D005D004120DB2C004C005C00621
:10093000C007AC18AD19E4120FB27BBE7AC179972B
:10094000783D120EA7A804A905AA06AB07D007D0C8
:1009500006D005D004120DB2C004C005C006C00701
:10096000AC0EAD0FE4120FB27B547A5279A7783DEA
:10097000120EA7A804A905AA06AB07D007D006D077
:1009800005D004120DB2C004C005C006C007AC16E5
:10099000AD17E4120FB27B547A5279A7783D120E4C
:1009A000A7A804A905AA06AB07D007D006D005D092
:1009B00004120DB2C004C005C006C007AC10AD11D2
:1009C000E4120FB27B7C7AF279B0783D120EA7A8C0
:1009D00004A905AA06AB07D007D006D005D004129B
:1009E0000DB2C004C005C006C007AC14AD15E412BA
:1009F0000FB27B7C7AF279B0783D120EA7A804A9D9
:100A000005AA06AB07D007D006D005D004120DB258
:100A1000C004C005C006C007AC12AD13E4120FB28B
:100A20007B477A727969783F020BB030B103020BD1
:100A3000C1AC1CAD1DE4120FB27B807AB77980780F
:100A40003E120EA7C004C005C006C007AC90E41259
:100A50000FB77B807AB77980783E120EA7D003D08B
:100A600002D001D000120DB6C004C005C006C007F8
:100A7000AC0AAD0BE4120FB27B527A49791D783B78
:100A8000120EA7D003D002D001D000120DB6C004C0
:100A9000C005C006C007AC1AAD1BE4120FB27B52F2
:100AA0007A49791D783B120EA7D003D002D001D02D
:100AB00000120DB6C004C005C006C007AC0CAD0DD9
:100AC000E4120FB27B527A49791D783B120EA7D0FF
:100AD00003D002D001D000120DB6C004C005C0067C
:100AE000C007AC18AD19E4120FB27B527A49791DD8
:100AF000783B120EA7D003D002D001D000120DB661
:100B0000C004C005C006C007AC0EAD0FE4120FB2A2
:100B10007B0A7AD77923783B120EA7D003D002D074
:100B200001D000120DB6C004C005C006C007AC1647
:100B3000AD17E4120FB27B0A7AD77923783B120EF5
:100B4000A7D003D002D001D000120DB6C004C0055A
:100B5000C006C007AC10AD11E4120FB27B527A4947
:100B6000791D783B120EA7D003D002D001D000121D
:100B70000DB6C004C005C006C007AC14AD15E41224
:100B80000FB27B527A49791D783B120EA7D003D061
:100B900002D001D000120DB6C004C005C006C007C7
:100BA000AC12AD13E4120FB27B0A7AD77923783BEB
:100BB000120EA7D003D002D001D000120DB6020D44
:100BC000A0A2B1B3B0B04003020DA7AC1CAD1DE4B0
:100BD000120FB27B9D7A8079A6783D120EA7C004D1
:100BE000C005C006C007AC90E4120FB77B9D7A80A9
:100BF00079A6783D120EA7D003D002D001D0001202
:100C00000DB6C004C005C006C007AC0AAD0BE412A7
:100C10000FB27B667AF77964783E120EA7A804A912
:100C200005AA06AB07D007D006D005D004120DB236
:100C3000C004C005C006C007AC1AAD1BE4120FB259
:100C40007B667AF77964783E120EA7A804A905AAF4
:100C500006AB07D007D006D005D004120DB2C004F1
:100C6000C005C006C007AC0CAD0DE4120FB27B2B63
:100C70007A187995783D120EA7A804A905AA06ABA3
:100C800007D007D006D005D004120DB2C004C005AD
:100C9000C006C007AC18AD19E4120FB27B2B7A184E
:100CA0007995783D120EA7A804A905AA06AB07D02E
:100CB00007D006D005D004120DB2C004C005C0068E
:100CC000C007AC0EAD0FE4120FB27B387AF879C2D0
:100CD000783C120EA7A804A905AA06AB07D007D036
:100CE00006D005D004120DB2C004C005C006C0076E
:100CF000AC16AD17E4120FB27B387AF879C2783CA3
:100D0000120EA7A804A905AA06AB07D007D006D0E3
:100D100005D004120DB2C004C005C006C007AC1057
:100D2000AD11E4120FB27B967A43790B783C120E28
:100D3000A7A804A905AA06AB07D007D006D005D0FE
:100D400004120DB2C004C005C006C007AC14AD1536
:100D5000E4120FB27B967A43790B783C120EA7A867
:100D600004A905AA06AB07D007D006D005D0041207
:100D70000DB2C004C005C006C007AC12AD13E4122A
:100D80000FB27BE77A1D79A7783B120EA7A804A9BA
:100D900005AA06AB07D007D006D005D004120DB2C5
:0F0DA000120FEB8FA080038590A0C2B70208103E
:100DAF00021057E86480F8E933E83360110460F00B
:100DBF00ED33EC337009E8FCE9FDEAFEEBFF2204AA
:100DCF0060DED3EB9FEA9EE99DE8C2E78CF0C2F7A5
:100DDF0095F0400CE8CCF8E9CDF9EACEFAEBCFFB71
:100DEF0012102285D0F05804700320D5B3E8047098
:100DFF00075002B2D502106192D5EC0460F7E4CC33
:100E0F00C0E0C398F8603B94186008400DD0E0FB39
:100E1F00021039E4FBFAC9FC8028E830E406E4C983
:100E2F00FBE4CAFCE830E305E4C9CACBFCE854078D
:100E3F006010F8C3E913F9EA13FAEB13FBEC13FC98
:100E4F00D8F130F52FC3E49CFCEF9BFFEE9AFEED3B
:100E5F0099FDD0E0FBEF4E4D4C701222DB030210D8
:100E6F005EEC2CFCEF33FFEE33FEED33FDED30E7A0
:100E7F00EB021039EF2BFFEE3AFEED39FDD0E0FB20
:100E8F0050130BBB0003021061ED13FDEE13FEEFC9
:080E9F0013FFEC13FC021039F3
:100EA700EC4D6011E8497017ED33EC3304600DE445
:100EB700FCFFFEFD22E933E8330470F802105712F5
:100EC700102258046009E4CC2481500628500902F6
:100ED700106128400302105EC0E0EB4A7044B980FD
:100EE70006D0E0FB02104DEF4E701CBD8008EBFFF3
:100EF700EAFEE9FD80EBE98DF0A4FEE5F0020F9034
:100F0700E9CDF9EAFEEBFFEF89F0A4FCE5F0CE8925
:100F1700F0A42EFFE435F0CD89F0A42DFEE435F0E2
:100F27008067EF4E7005BD80D780C3EF8BF0A4AC10
:100F3700F0EE8BF0A42CFCE435F0F8EF8AF0A42C4B
:100F4700E5F038FCE433CB8DF0A42CFCE5F03BF85E
:100F5700EE8AF0A42CFCE5F038F8E433CF89F0A44E
:100F67002CFCE5F038CF3400CE89F0A42FFFE5F054
:100F77003EFEE433C98DF0A42EFEE5F039CD8AF0AC
:100F8700A42FFFE5F03EFEE43DFD33D0E0FB500724
:100F97000BBB000F021061EC2CFCEF33FFEE33FEAE
:060FA700ED33FD021039DC
:100FAD0075F020800E75F010800575F0087D007EBF
:100FBD00007F003392D530D50312106CEC33401006
:100FCD00EF33FFEE33FEED33FDEC33FCD5F0ED22C8
:0E0FDD00E5F0247EA2D513CC92E7CDCEFF2204
:100FEB00EDD2E7CD33EC3392D524814006E4FFFEFE
:100FFB00FDFC22FCE4CFCECDCC24E0501174FF805D
:10100B00EDC3CC13CCCD13CDCE13CECF13CF0470F9
:07101B00F030D5DE02106C7D
:10102200E9D2E7C933E833F892D5EDD2E7CD33EC14
:0710320033FC5002B2D5228D
:10103900EC30E7100FBF000C0EBE00080DBD000418
:101049000BEB6014A2D5EB13FCED92E7FD2274FFC4
:10105900FCFDFEFF22E480F8A2D574FF13FC7D801D
:03106900E480EF31
:10108600020800E493A3F8E493A34003F68001F278
:1010960008DFF48029E493A3F85407240CC8C3336B
:1010A600C4540F4420C8834004F456800146F6DF3A
:1010B600E4800B0102040810204080901126E47E93
:1010C600019360BCA3FF543F30E509541FFEE4932F
:1010D600A360010ECF54C025E060A840B8E493A3F6
:1010E600FAE493A3F8E493A3C8C582C8CAC583CA21
:1010F600F0A3C8C582C8CAC583CADFE9DEE780BED9
:01113E0000B0
:0E106C00C3E49FFFE49EFEE49DFDE49CFC2295
:00000001FF
